{
  "_format": "hh-sol-artifact-1",
  "contractName": "FileStorage",
  "sourceName": "contracts/deploy.sol",
  "abi": [
    {
      "anonymous": false,
      "inputs": [
        {
          "indexed": false,
          "internalType": "string",
          "name": "fileHash",
          "type": "string"
        },
        {
          "indexed": false,
          "internalType": "string",
          "name": "fileName",
          "type": "string"
        },
        {
          "indexed": false,
          "internalType": "uint256",
          "name": "fileSize",
          "type": "uint256"
        },
        {
          "indexed": false,
          "internalType": "string",
          "name": "pinAddress",
          "type": "string"
        },
        {
          "indexed": false,
          "internalType": "address",
          "name": "owner",
          "type": "address"
        }
      ],
      "name": "FileStored",
      "type": "event"
    },
    {
      "inputs": [
        {
          "internalType": "string",
          "name": "",
          "type": "string"
        }
      ],
      "name": "files",
      "outputs": [
        {
          "internalType": "string",
          "name": "fileName",
          "type": "string"
        },
        {
          "internalType": "uint256",
          "name": "fileSize",
          "type": "uint256"
        },
        {
          "internalType": "address",
          "name": "owner",
          "type": "address"
        },
        {
          "internalType": "string",
          "name": "pinAddress",
          "type": "string"
        }
      ],
      "stateMutability": "view",
      "type": "function"
    },
    {
      "inputs": [
        {
          "internalType": "string",
          "name": "fileHash",
          "type": "string"
        }
      ],
      "name": "getFile",
      "outputs": [
        {
          "internalType": "string",
          "name": "",
          "type": "string"
        }
      ],
      "stateMutability": "view",
      "type": "function"
    },
    {
      "inputs": [
        {
          "internalType": "string",
          "name": "fileHash",
          "type": "string"
        },
        {
          "internalType": "string",
          "name": "fileName",
          "type": "string"
        },
        {
          "internalType": "uint256",
          "name": "fileSize",
          "type": "uint256"
        },
        {
          "internalType": "string",
          "name": "pinAddress",
          "type": "string"
        }
      ],
      "name": "storeFile",
      "outputs": [],
      "stateMutability": "nonpayable",
      "type": "function"
    },
    {
      "inputs": [
        {
          "internalType": "address",
          "name": "",
          "type": "address"
        },
        {
          "internalType": "uint256",
          "name": "",
          "type": "uint256"
        }
      ],
      "name": "userFiles",
      "outputs": [
        {
          "internalType": "string",
          "name": "",
          "type": "string"
        }
      ],
      "stateMutability": "view",
      "type": "function"
    }
  ],
  "bytecode": "0x608060405234801561001057600080fd5b50610c73806100206000396000f3fe608060405234801561001057600080fd5b506004361061004c5760003560e01c8063718f38a614610051578063bf800cdf14610081578063e0876aa81461009d578063e7755761146100cd575b600080fd5b61006b600480360381019061006691906107c4565b610100565b604051610078919061098b565b60405180910390f35b61009b60048036038101906100969190610841565b6101b9565b005b6100b760048036038101906100b29190610800565b61035a565b6040516100c4919061098b565b60405180910390f35b6100e760048036038101906100e29190610800565b610519565b6040516100f79493929190610a15565b60405180910390f35b6001602052816000526040600020818154811061011c57600080fd5b9060005260206000200160009150915050805461013890610b6e565b80601f016020809104026020016040519081016040528092919081815260200182805461016490610b6e565b80156101b15780601f10610186576101008083540402835291602001916101b1565b820191906000526020600020905b81548152906001019060200180831161019457829003601f168201915b505050505081565b60405180608001604052808481526020018381526020013373ffffffffffffffffffffffffffffffffffffffff168152602001828152506000856040516102009190610974565b9081526020016040518091039020600082015181600001908051906020019061022a92919061068f565b506020820151816001015560408201518160020160006101000a81548173ffffffffffffffffffffffffffffffffffffffff021916908373ffffffffffffffffffffffffffffffffffffffff160217905550606082015181600301908051906020019061029892919061068f565b50905050600160003373ffffffffffffffffffffffffffffffffffffffff1673ffffffffffffffffffffffffffffffffffffffff1681526020019081526020016000208490806001815401808255809150506001900390600052602060002001600090919091909150908051906020019061031492919061068f565b507fb342117bf988fa781e07e012d706459320458f3ef2dea3e0f42d7db4eb7e9f5b848484843360405161034c9594939291906109ad565b60405180910390a150505050565b60606000808360405161036d9190610974565b908152602001604051809103902060405180608001604052908160008201805461039690610b6e565b80601f01602080910402602001604051908101604052809291908181526020018280546103c290610b6e565b801561040f5780601f106103e45761010080835404028352916020019161040f565b820191906000526020600020905b8154815290600101906020018083116103f257829003601f168201915b50505050508152602001600182015481526020016002820160009054906101000a900473ffffffffffffffffffffffffffffffffffffffff1673ffffffffffffffffffffffffffffffffffffffff1673ffffffffffffffffffffffffffffffffffffffff16815260200160038201805461048890610b6e565b80601f01602080910402602001604051908101604052809291908181526020018280546104b490610b6e565b80156105015780601f106104d657610100808354040283529160200191610501565b820191906000526020600020905b8154815290600101906020018083116104e457829003601f168201915b50505050508152505090508060600151915050919050565b60008180516020810182018051848252602083016020850120818352809550505050505060009150905080600001805461055290610b6e565b80601f016020809104026020016040519081016040528092919081815260200182805461057e90610b6e565b80156105cb5780601f106105a0576101008083540402835291602001916105cb565b820191906000526020600020905b8154815290600101906020018083116105ae57829003601f168201915b5050505050908060010154908060020160009054906101000a900473ffffffffffffffffffffffffffffffffffffffff169080600301805461060c90610b6e565b80601f016020809104026020016040519081016040528092919081815260200182805461063890610b6e565b80156106855780601f1061065a57610100808354040283529160200191610685565b820191906000526020600020905b81548152906001019060200180831161066857829003601f168201915b5050505050905084565b82805461069b90610b6e565b90600052602060002090601f0160209004810192826106bd5760008555610704565b82601f106106d657805160ff1916838001178555610704565b82800160010185558215610704579182015b828111156107035782518255916020019190600101906106e8565b5b5090506107119190610715565b5090565b5b8082111561072e576000816000905550600101610716565b5090565b600061074561074084610a99565b610a68565b90508281526020810184848401111561075d57600080fd5b610768848285610b2c565b509392505050565b60008135905061077f81610c0f565b92915050565b600082601f83011261079657600080fd5b81356107a6848260208601610732565b91505092915050565b6000813590506107be81610c26565b92915050565b600080604083850312156107d757600080fd5b60006107e585828601610770565b92505060206107f6858286016107af565b9150509250929050565b60006020828403121561081257600080fd5b600082013567ffffffffffffffff81111561082c57600080fd5b61083884828501610785565b91505092915050565b6000806000806080858703121561085757600080fd5b600085013567ffffffffffffffff81111561087157600080fd5b61087d87828801610785565b945050602085013567ffffffffffffffff81111561089a57600080fd5b6108a687828801610785565b93505060406108b7878288016107af565b925050606085013567ffffffffffffffff8111156108d457600080fd5b6108e087828801610785565b91505092959194509250565b6108f581610af0565b82525050565b600061090682610ac9565b6109108185610ad4565b9350610920818560208601610b3b565b61092981610bfe565b840191505092915050565b600061093f82610ac9565b6109498185610ae5565b9350610959818560208601610b3b565b80840191505092915050565b61096e81610b22565b82525050565b60006109808284610934565b915081905092915050565b600060208201905081810360008301526109a581846108fb565b905092915050565b600060a08201905081810360008301526109c781886108fb565b905081810360208301526109db81876108fb565b90506109ea6040830186610965565b81810360608301526109fc81856108fb565b9050610a0b60808301846108ec565b9695505050505050565b60006080820190508181036000830152610a2f81876108fb565b9050610a3e6020830186610965565b610a4b60408301856108ec565b8181036060830152610a5d81846108fb565b905095945050505050565b6000604051905081810181811067ffffffffffffffff82111715610a8f57610a8e610bcf565b5b8060405250919050565b600067ffffffffffffffff821115610ab457610ab3610bcf565b5b601f19601f8301169050602081019050919050565b600081519050919050565b600082825260208201905092915050565b600081905092915050565b6000610afb82610b02565b9050919050565b600073ffffffffffffffffffffffffffffffffffffffff82169050919050565b6000819050919050565b82818337600083830152505050565b60005b83811015610b59578082015181840152602081019050610b3e565b83811115610b68576000848401525b50505050565b60006002820490506001821680610b8657607f821691505b60208210811415610b9a57610b99610ba0565b5b50919050565b7f4e487b7100000000000000000000000000000000000000000000000000000000600052602260045260246000fd5b7f4e487b7100000000000000000000000000000000000000000000000000000000600052604160045260246000fd5b6000601f19601f8301169050919050565b610c1881610af0565b8114610c2357600080fd5b50565b610c2f81610b22565b8114610c3a57600080fd5b5056fea2646970667358221220073751a12c0a30c89463dce3275bd4ea4d224b6781a5620f01e4c096b997db9764736f6c63430008000033",
  "linkReferences": {},
  "deployedLinkReferences": {}
}